:020000040800F2
:10000000C8770020510300080D7800084724000835
:10001000CD77000885200008A983000800000000B3
:10002000000000000000000000000000B90200080D
:100030001922000800000000FD020008337B0008C0
:100040006B0300086B0300086B0300086B030008D8
:100050006B0300086B0300086B0300086B030008C8
:100060006B0300086B0300086B0300086B030008B8
:100070006B0300086B0300086B0300086B030008A8
:100080006B0300086B0300086B0300086B03000898
:100090006B0300086B0300086B0300086B03000888
:1000A0006B0300086B0300086B0300086B03000878
:1000B0006B030008857C0008057D00086B030008C1
:1000C0006B0300086B0300086B0300086B03000858
:1000D0006B0300086B030008E58000086B03000851
:1000E0006B0300086B0300086B0300086B03000838
:1000F0006B0300086B0300086B0300086B03000828
:100100006B0300086B0300086B0300086B03000817
:100110006B0300086B0300086B0300086B03000807
:100120006B0300086B0300086B0300086B030008F7
:1001300000F002F800F0B0F80AA090E8000C824449
:100140008344AAF10107DA4501D100F0A5F8AFF226
:10015000090EBAE80F0013F0010F18BFFB1A43F0A5
:100160000103184744E4000064E400000A444FF02F
:10017000000C10F8013B13F0070408BF10F8014B06
:100180001D1108BF10F8015B641E05D010F8016B4B
:10019000641E01F8016BF9D113F0080F1EBF10F8AF
:1001A000014BAD1C0C1B09D16D1E58BF01F801CBD2
:1001B000FAD505E014F8016B01F8016B6D1EF9D555
:1001C0009142D6D37047000000230024002500266A
:1001D000103A28BF78C1FBD8520728BF30C148BFAA
:1001E0000B6070476E2900F00684702900F0AB8127
:1001F00066290CF0468565290CF0438567290CF0CB
:1002000040856129AFF3008003681B0A28BF41F0D5
:100210008001692900F01C81642900F01981752989
:1002200000F016816F2900F00B87782900F07781A4
:10023000E92900F0A586E42900F0A286F52900F05E
:100240009F86EF2900F00887F82900F0768103687F
:10025000DB0928BF41F08001632900F0148673296F
:1002600000F01986E32900F0C787F32900F0CC8756
:10027000002070471FB500F02BFF04000020002174
:100280000CF06CF9401C6060002000210CF050F96B
:10029000E0601FBD10B510BD01F050F81146FFF72A
:1002A000E9FF08F053FD01F077F803B4FFF7F2FF20
:1002B00003BC08F072FB0000224B19680868B0E824
:1002C000F00F80F30988BFF36F8F4FF0000080F3C9
:1002D00011884EF00D0E70470000000006480068BF
:1002E000006880F3088862B661B6BFF34F8FBFF332
:1002F0006F8F00DF00BF00BF08ED00E0EFF3098063
:10030000BFF36F8F0F4B1A6820E9F00F106008B52C
:100310004FF0500080F31188BFF34F8FBFF36F8F02
:100320000AF05CFF4FF0000080F31188BDE8084040
:1003300019680868B0E8F00F80F30988BFF36F8F81
:10034000704700BFD4000020EFF305807047000025
:100350000948804709480047FEE7FEE7FEE7FEE759
:10036000FEE7FEE7FEE7FEE7FEE7FEE70448054995
:10037000054A064B70470000457B00083101000824
:10038000C8710020C8770020C8730020C8730020FF
:10039000704700001CB50C46064B7B446946009034
:1003A000204600F04EFD04460020694600F05CFD4A
:1003B00020461CBDCB0A00000FB4044910B503AAA7
:1003C000029800F06DFD10BC5DF814FB5C0000208D
:1003D0000FB41CB5084B06AA7B44694600900598EB
:1003E00000F02FFD04460020694600F03DFD204648
:1003F0001CBC5DF814FB00008D0A000070B50C46B3
:100400000546012A05D02878800600D5EA69002330
:1004100002E0012305E05B1C934202D2E05C00286D
:10042000F9D1A869E618C01AA861286A1844286298
:10043000284600F04EFA04E0D5E9012114F8010B3A
:100440009047B442F8D3284600F059FA70BD000036
:100450002DE9F0410646002410687529314616A59D
:1004600010D000F05DFA002802DA404213A507E040
:1004700031688A0701D512A502E0490704D511A504
:10048000012401E000F055FA00210A2206F12407B8
:1004900009E0B0FBF2FCB0FBF2F302FB1C003030D1
:1004A00078541846491C0028F3D123462A46304682
:1004B000BDE8F04100F046BA000000002D00000049
:1004C0002B00000020000000F0B40D460188090553
:1004D00002D5214C7C4402E01F4C7C440E340021A8
:1004E00000F1240608E002F00F071209E75D42EA76
:1004F00003721B097754491C52EA0307F3D10278AF
:100500000023120704D5702D06D009B1022311343F
:100510002246F0BC00F016BA01231034F8E770B59B
:1005200004460D462146106800F003FA02462946AB
:100530002046BDE870400023C6E7D21D22F0070325
:10054000D3E90023C0E70368126843F02003036087
:100550000823C3610023B7E7C0DF00002DE9F05F87
:10056000894604464FF0000ADFF874B1FB44C0F836
:1005700020A02046E1688847002874D0252806D0AE
:10058000D4E901219047206A401C2062F1E700264F
:100590005F462046E16888472028054607DB312D65
:1005A00005D2781910F8200C08B10643F1E7B0071E
:1005B00001D526F00406C4F81CA00027C4F818A032
:1005C0002A2D09D0284608F0E1F938B304EB870852
:1005D000303DC8F8185019E059F8041B204604EBC8
:1005E00087029161E1688847012F054618D1E069CB
:1005F000002820DA26F020061DE0D8F8180000EBCD
:10060000800005EB40003038C8F818002046E1684B
:100610008847054608F0BAF90028EED1012F0AD024
:100620002E2D08D12046E16888477F1C0546022F01
:1006300046F02006C4DBA069002803DA404246F0F9
:100640000106A061F00701D026F010066C2D0BD03A
:10065000682D09D04C2D39D06A2D35D0742D35D068
:100660007A2D33D016E038E0E1682F4620468847DF
:10067000B842054609D16C2F26D04FF48060E1685E
:10068000064320468847054604E06C2F1AD04FF4F5
:10069000807006430DB3A5F14100192802D820351A
:1006A00046F400664A462946204626604E46FFF735
:1006B00099FD80B101280BD0F61D26F0070000F14E
:1006C000080956E74020E4E78020D8E70020D6E775
:1006D00006F104094DE7284652E7206ABDE8F09F7D
:1006E00050DF000030B505460B462A4613F8014B93
:1006F00012F8010B08B1A042F8D01CB1002802D0BA
:100700006D1CF1E7284630BD40EA010310B59B0798
:100710000FD1042A0DD310C808C9121F9C42F8D06B
:1007200020BA19BA884201D9012010BD4FF0FF301C
:1007300010BD1AB1D30703D0521C07E0002010BD32
:1007400010F8013B11F8014B1B1B07D110F8013BBE
:1007500011F8014B1B1B01D1921EF1D1184610BD9F
:1007600010B5431C02E010F8011B71B18107FAD1EA
:100770004FF0013202C88C1A8C4314EAC211F9D02E
:10078000C01A0A0603D0C01E10BDC01A10BD0A044C
:1007900001D0801E10BD0902FCD0401E10BD032AEE
:1007A00040F2308010F0030C00F0158011F8013B8E
:1007B000BCF1020F624498BF11F801CB00F8013B75
:1007C00038BF11F8013BA2F1040298BF00F801CB39
:1007D00038BF00F8013B11F0030300F04784083AEA
:1007E000C0F0088051F8043B083A51F804CBA0E867
:1007F0000810F5E7121D5CBF51F8043B40F8043BBC
:10080000AFF30080D20724BF11F8013B11F801CBF0
:1008100048BF11F8012B24BF00F8013B00F801CBC1
:1008200048BF00F8012B704702F0FF0343EA0322A0
:1008300042EA024200F002B84FF000020429C0F080
:10084000128010F0030C00F01B80CCF1040CBCF102
:10085000020F18BF00F8012BA8BF20F8022BA1EB54
:100860000C0100F00DB85FEAC17C24BF00F8012B39
:1008700000F8012B48BF00F8012B70474FF0000231
:1008800000B5134694469646203922BFA0E80C5086
:10089000A0E80C50B1F12001BFF4F7AF090728BF61
:1008A000A0E80C5048BF0CC05DF804EB890028BFDD
:1008B00040F8042B08BF704748BF20F8022B11F006
:1008C000804F18BF00F8012B704770477047704782
:1008D000704770B5044685690068C10601D53026A9
:1008E00000E02026C00707D070BDD4E901213046C2
:1008F0009047206A401C20626D1EF6D570BD70B511
:10090000044685690078C00707D170BDD4E901218C
:1009100020209047206A401C20626D1EF6D570BDD5
:1009200009684A0501D540B27047C905FCD500B237
:10093000704709684A0501D5C0B27047C905FCD5A2
:1009400080B270472DE9F0470D469946924604461D
:1009500000F124080168880604D5E06921F010013F
:10096000216000E00120A84201DD471B00E00027D4
:10097000A1697A1902EB0900081AA0612078C00663
:1009800002D42046FFF7A5FF002608E0D4E90121A4
:100990001AF806009047206A401C761C20624E45DB
:1009A000F4DB2078C0060AD52046FFF792FF06E068
:1009B000D4E9012130209047206A401C2062381E73
:1009C000A7F10107F4DC07E0D4E9012118F80500DC
:1009D0009047206A401C2062281EA5F10105F3DC27
:1009E0002046FFF78CFF2078000602D50220BDE8E4
:1009F000F0870120FBE711680268006A530501D502
:100A000008700AE0D30501D5088006E0130603D577
:100A1000C217C1E9000200E008600120704770477A
:100A20002DE9FF4F0C461E464FF0FF378BB0D2E941
:100A30000001DDF860800A908A46C1F30A5505B9C5
:100A40003D46002108464FF00000BAF1000F00F4C7
:100A5000400005DA00EB80004FF4400101EA50004D
:100A60004FEA9059B9F1010F00DDB9460A9850EAF2
:100A70004A000ED044F61050A5F2FF3545432F141E
:100A8000B8F1000F1ED07542291E1EDDC9F100020B
:100A90001CE0B8F1010F4FF0000001D0302103E05D
:100AA000F24305E02154401CB042FBDB30460022FB
:100AB000002121540B99C1F80880C1E900200FB032
:100AC000BDE8F08FBD1B6D1CDEE74A4600DA6942C7
:100AD00006A800F09DFB06AB93E8070003AB83E894
:100AE000070050460A9900F09DFC8DE80700A0F52C
:100AF00000501F3800900398002D09DD42F21F01BD
:100B00004A46084403A90390684600F0FCFE08E04A
:100B1000A0F500504A461F3803A90390684600F02C
:100B200006FF8DE807000004000C03D04FF0FF30F3
:100B3000410800E01046B8F1000F03D000220092F7
:100B400015461EE0751E05D400F0C6FA3032625517
:100B50006D1EF9D5B3460122084302D000227F1C46
:100B600004E02078302801D100227F1E002A099756
:100B700086D01DE0112D07DA00F0AEFA3032625552
:100B80006D1C50EA0102F5D1084302D00098C8B1AB
:100B90000EE00021681E05E0235C625C6354225471
:100BA000401E491C8142F7DBAB46A81B401E099042
:100BB000002004F80B000B98099AC0F80880C0E9DF
:100BC000002B7CE711264FF0000859E72DE9F04F84
:100BD00088460446D21D22F0070191B0D1E90001F8
:100BE000CDE90A0107F0BEFE02460B98C00F01D006
:100BF0002D2007E02068810701D52B2002E020216D
:100C000001EAC000032A099001D0072A05DB034648
:100C10004146204600F0A6FA0BE12078800601D577
:100C2000E06900E00620B8F1650F814606D0B8F112
:100C3000660F18D0B8F1670F70D131E00020B9F11C
:100C4000110F009001DB112301E009F101030AAA51
:100C500001A90CA8FFF7E4FEDDE90C70002609F1FC
:100C60000105834647E001204B4600904FF00047C6
:100C70000AAA01A90CA8FFF7D3FEDDE90DB00C9973
:100C80005D46002610B909F101000D18B9EB050009
:100C900003D4C0F1FF3609F10105A5EB09002BE0F3
:100CA000B9F1010F01DA4FF001090020B9F1110F7C
:100CB0000090484601DD112300E003460AAA01A97D
:100CC0000CA8FFF7ADFEDDE90C704D46002683460B
:100CD000207800070AD4AB4500DA5D4601A8012D53
:100CE00004DD411911F8011C302907D04F4502DA03
:100CF00017F1040F04DA012082460FE06D1EEEE7C3
:100D0000002F02DCED1B3E4403E0781CA84200DD0E
:100D10007D1CB81B00F1010A4FF000472078000746
:100D200003D4AA4501DB4FF0FF3A0021B7F1004F91
:100D30000DF143088DF8431024D002202B23002FFF
:100D400001DA7F422D230A21021EA0F1010000DCFE
:100D50005FB197FBF1FC97FBF1F201FB1C7C17469E
:100D60000CF1300C08F801CDEEE7A8F1010003709A
:100D70002188090501D5452100E06521A0F1010880
:100D800000F8011C09980FA9A1EB0807FF1D00B18D
:100D90000120411901EBEA70A1693844081A401E8C
:100DA000A0612078C00602D42046FFF792FD099882
:100DB00028B1D4E901219047206A401C20622078A4
:100DC000C00622D52046FFF784FD1EE0002E04DB7E
:100DD000B34502DD01A8805D00E03020D4E90121A7
:100DE0009047206A401C2062761CAAF101005FEA4D
:100DF000000A0AD100F06CF9C0680168405CD4E9CF
:100E000001219047206A401C2062281EA5F101059F
:100E1000DCDC07E0D4E9012118F8010B9047206AD7
:100E2000401C2062381EA7F10107F3DC2046FFF7C3
:100E300066FD032011B043E601694A1C026108788F
:100E4000704700B58FB0CDE901310021059105490A
:100E50007944CDE9031011466846FFF77FFB0FB0D8
:100E600000BD0000E5FFFFFF0A6802F8010B0A6001
:100E7000704710B5436913B1AFF3008001E0FFF78D
:100E8000BDFA012010BD127800F124010A70002281
:100E90004A700122EDE711684FF0FF32E9E70000E8
:100EA000074B70B50D467B44FFF7CBFF0446284641
:100EB00000F01CFA10B14FF0FF3070BD204670BD3D
:100EC0005B7D00002DE9FF5F15468A460446DFF88A
:100ED000AC80F8440027D8E900103E46CDE9001068
:100EE00010E03AF816106A4602A800F003FA411C16
:100EF00007D02178890603D5E269391891420DD8C7
:100F00000744761C2078800602D5E069B84205DDEA
:100F1000AE42E6DB3AF816000028E2D1A069C01B19
:100F2000A0612046FFF7D5FCD8E90010CDE90010FC
:100F3000002017E03AF818106A4602A800F0DAF923
:100F4000B0F1FF3F81460BD000250DF1080B05E005
:100F5000D4E901211BF8050090476D1C4D45F7D3DE
:100F600008F10100B0428046E4DB206A3844206288
:100F70002046FFF7C4FCBDE8FF9F0000FED500003F
:100F80002DE9F0418046D21D22F007020025D2E96A
:100F90000002F52915A614D0011E72F1000106DA2F
:100FA0000023D0EB030063EB020211A608E0D8F89F
:100FB00000108B0701D50FA602E0490701D50EA648
:100FC00001251146002408F1240704E000F084F80C
:100FD00030323A55641C50EA0102F7D12B463246B2
:100FE00021464046BDE8F041FFF7ACBC00000000E0
:100FF0002D0000002B0000002000000030B4002174
:1010000000F1240408E002F00705D208303542EA76
:101010004372DB086554491C52EA0305F3D10468A6
:10102000002310A2250708D504F020040C4304D0A7
:10103000C46901230CA2641EC46130BCFFF782BCEA
:1010400010B5044621461068FFF773FC024620469F
:10105000BDE810400023D1E7D21D22F00701D1E9FD
:101060000023CBE7000000003000000010B5203A5C
:10107000C0F00B80B1E81850203AA0E81850B1E851
:101080001850A0E81850BFF4F5AF5FEA027C24BF07
:10109000B1E81850A0E8185044BF18C918C0BDE8FE
:1010A00010405FEA827C24BF51F8043B40F8043BC7
:1010B00008BF7047D20728BF31F8023B48BF11F87C
:1010C000012B28BF20F8023B48BF00F8012B7047D6
:1010D000004870478471002030B5B0F10A024FEA31
:1010E000900E71F100034EEA817EB0EB0E0061EBD1
:1010F00091014FEA101E4EEA017E10EB0E0041EB0B
:1011000011114FEA102E4EEA016E10EB0E0041EB6A
:1011100011214FEA104E4EEA014E10EB0E0041EB4A
:101120001141401841F100014FEAD00040EA4170FE
:101130004FEAD10110EB80054FEA810444EA907434
:1011400044EB01046D1944EB0404521BA3414FF01E
:10115000000348BF0A3200D530BD401C41F10001F8
:1011600030BD00002DE9F0411F460446032601680A
:10117000072A01F4006004DB08B116A505E016A5F6
:1011800003E008B115A500E015A521F010002060CE
:10119000A069C01EA0610FB1401EA0612046FFF7EC
:1011A00098FB4FB1D4E9012138469047206A401C92
:1011B0002062C01C206206E0206AFAE7D4E901211F
:1011C00015F8010B9047761EF8D22046FFF797FBE3
:1011D000BDE8F0814E414E006E616E00494E460002
:1011E000696E660010B5436913B1AFF3008001E08A
:1011F000FFF768FE012010BD128800F124018284EF
:101200000022C2840122EDE711684FF0FF32E9E7C6
:101210002DE9F047814616468AB0334878440DC818
:101220008DE80D0030487844801C03AC0DC884E87C
:101230000D0041F69B300844372190FBF1F290FB02
:10124000F1F5A5F1800501FB12041B3C02D56442B7
:10125000012000E00020DFF890A080460027FA443B
:10126000AAF1BE0A0DE0E00709D03246684607EB56
:1012700047010AEB810100F05AFB8DE8070064107A
:101280007F1C002CEFD1184F7F44AC3F18E0E807DB
:1012900014D007EB04100DF1180A90E80E008AE84C
:1012A0000E00C068F04201D198190890324606A994
:1012B00003A800F03CFB03AB83E807006D10641C3F
:1012C000002DE4D132466946B8F1000F03A802D0E0
:1012D00000F019FB01E000F02AFBC9E90001C9F8A0
:1012E00008200AB0BDE8F08738D30000007B00F08A
:1012F0008000704770B516460C46054600F044F86D
:10130000036893F80101012806D0FF2C0FD8185D5F
:1013100068B101202C7070BDD3F807013246214618
:1013200003F2071303442846BDE8704018474FF006
:10133000FF3070BD00487047647100207546FFF7AC
:10134000F9FFAE4605006946534620F00700854682
:1013500018B020B5FFF70AF8BDE820404FF00006AE
:101360004FF000074FF000084FF0000B21F007018D
:10137000AC46ACE8C009ACE8C009ACE8C009ACE8D0
:10138000C0098D467047000010B5FFF7A1FE001D93
:1013900010BD00BFC9B100000446AFF30080204675
:1013A000FEF783FF4FF0013C50F8042B51F8043B4B
:1013B0009A4221D1A2EB0C03934313EACC1317D129
:1013C00050F8042B51F8043B9A4215D1A2EB0C03C0
:1013D000934313EACC130BD150F8042B51F8043B80
:1013E0009A4209D1A2EB0C03934313EACC13DBD04E
:1013F0004FF00000704700BFD01A01BAB1FA81F176
:1014000001F0180122FA01F0CB40C1F12001DBB25A
:10141000C0B2C01A2CFA01F3D11A914311EAC311D8
:10142000E6D170475FEA400C08BF91F0000F4FEA29
:101430008C234FEAC12243EA51514FEA1C5018BF96
:1014400000F5F0404FEA300018BF41F000415FEA7C
:101450006C5C00F02980BCF1FF3F08BF40F0804089
:101460007047130C06BF12044FF0100C4FF0000C25
:10147000130E04BF12020CF1080C130F04BF12016B
:101480000CF1040C930F04BF92000CF1020CD30F6B
:1014900004BF52000CF1010C11464FF00002A0F104
:1014A0001F00A0EB0C00704711F0004F08BF704701
:1014B00031F000413FF4D5AF0B0C06BF09044FF0EB
:1014C000100C4FF0000C0B0E04BF09020CF1080CBD
:1014D0000B0F04BF09010CF1040C8B0F04BF890032
:1014E0000CF1020CCB0F04BF49000CF1010CCCF144
:1014F0002003A0EB0C0022FA03F302FA0CF241EAFB
:10150000030100F10100704720F07F4C80EA0300E6
:1015100023F07F47ACEB070303F57C5300F000405A
:1015200003F1FF032DE980494FEA154B09B44FEA57
:10153000144325EA0B4E24EA03480FF2042606EB77
:10154000132749083E785FEA320203FB0667C7F5B6
:10155000000707FB06F64FEA54374FEAD64606F176
:10156000020607FB066CCCF1005C4FEA1C472CEA34
:10157000074C07FB06F40CFB06F504EB15464FEA97
:10158000961634BF00204FF000404FEAD13706FBDB
:1015900007FC4FEA1C4C0CFB0BF7D21B03FB0CF7B0
:1015A00061EB07010CFB0EF7B0EB074072EB174243
:1015B0000CFB08F734BFA2EB0742B2EB074261EB2A
:1015C00017414FEA0C444FEA910706FB07FC4FEA2C
:1015D0001C4C0CFB0BF7B0EBC74072EB573203FB14
:1015E0000CF734BFA2EBC742B2EBC74261EB5731F5
:1015F0000CFB0EF7B0EBC70072EB57720CFB08F751
:1016000034BFA2EBC702B2EBC70261EB5771039F75
:101610004FEA816141EA921104EBCC044FEAD137E1
:101620004FEA826206FB07FC42EA90124FEA8060B2
:101630004FEA1C4C0CFB0BF7D21B03FB0CF761EBC6
:1016400007010CFB0EF7B0EB074072EB17420CFBE7
:1016500008F734BFA2EB0742B2EB074261EB174138
:101660004FEA8C554FEA910704EB9C2406FB07FCDC
:101670004FEA1C4C0CFB0BF7B0EBC74072EB573238
:1016800003FB0CF734BFA2EBC742B2EBC74261EBDE
:1016900057310CFB0EF7B0EBC70072EB57720CFB27
:1016A00008F734BFA2EBC702B2EBC70261EB577178
:1016B00015EB4C254FEA816141EA92114FEA8262B3
:1016C0004FEAD13742EA901206FB07FC44F10004CE
:1016D0004FEA80604FEA1C4C0CFB0BF7D21B03FB5C
:1016E0000CF761EB07010CFB0EF7B0EB074072EB58
:1016F00017420CFB08F734BFA2EB0742B2EB0742DC
:1017000061EB174115EB1C154FEA813141EA92411B
:101710004FEA823242EA90424FEA80304FEA0C763A
:1017200044F1000448EA03434EEA0B484FF0000E30
:10173000B2EB080C71EB030724BF624639464EEB4F
:101740000E0E4FF0000B0018524149414BEB0B0BB2
:10175000B2EB080C71EB03077BF1000B24BF624670
:1017600039464EEB0E0E4FF0000B00185241494126
:101770004BEB0B0BB2EB080C71EB03077BF1000B8F
:1017800024BF624639464EEB0E0E51EA020718BFDF
:1017900046F0010616EB0E7655F1000254F10001F9
:1017A00003D5BDE88901BDE80088BDE88901BDE831
:1017B0000048B619524141EB0101A3F10103704702
:1017C00080807F7E7D7C7B7A79787776767574737E
:1017D000727171706F6E6E6D6C6C6B6A6A6968683D
:1017E000676666656464636362616160605F5F5ED3
:1017F0005E5D5D5C5C5B5B5A5A5959585857575649
:1018000056555555545453535252525151505050AD
:101810004F4F4F4E4E4D4D4D4C4C4C4B4B4B4A4AFF
:101820004A49494948484847474747464646454543
:10183000454444444443434343424242424141417C
:10184000002B26D4770021D01CB54FEA370703B40C
:101850004FF010004FF010014FF000000FBCBDE83A
:1018600010400BF1010BBBF1010F08BF5FEA170736
:1018700022BF12F1010211F101014FF0004143F1C9
:10188000000300F0004043EA00007047F9D3570816
:10189000DAE746EA064613F1400F4FEA16461FDD27
:1018A00013F1200FDFBF16430A46002120335B42AD
:1018B000C8D0C3F1200746EA064602FA07F74FEA06
:1018C000164646EA0706C3F1200722FA03F201FA98
:1018D00007F721FA03F14FF0000342EA0702B1E7EC
:1018E00046EA020646EA06464FEA164646EA010678
:1018F000BCBF46EA0646360C4FF000034FF000022C
:101900004FF000019EE72DE9C048934630B491E8BE
:10191000380007C831EA400C48BF34EA430C03D50D
:10192000FFF7F2FDFFF78CFFF0BCBDE800882DE962
:10193000C048934630B491E8380007C810F0804F93
:1019400008BF13F0804F03D100F005F8FFF778FFD0
:10195000F0BCBDE8008820F07F4780EA030023F058
:101960007F4C07EB0C03A3F57C5300F00040A3F180
:10197000FE0392F0000F00F0B38095F0000F00F02E
:1019800077802DE901494FEA11404FEA144621EAD8
:10199000004800FB06FC24EA064708FB06F607FBA6
:1019A00008F800FB07F718EB06484CEB164C4FEA1B
:1019B000124B18EB07484FEA15464CEB174022EA4A
:1019C0000B4E0BFB06FC25EA06470EFB06F607FB53
:1019D0000EFE0BFB07F71EEB064E4CEB164C4FF0C2
:1019E00000061EEB074E4CEB174B18EB0B0840F1B3
:1019F000000018EB0E0B58EB000840F100008F1AA6
:101A00004FF000013CBFC943661B14BFB5EB040C8B
:101A100000213CBFC943F61B4FEA17444EEA8E0E25
:101A200027EA04454FEA1C4704FB07622CEA074CEF
:101A300005FB07F70CFB05F604FB0CFC16EB074651
:101A400042EB174216EB0C4642EB1C421BEB060620
:101A500058EB0202414146EA9E0601D5BDE80189E4
:101A6000B619524141EB0101A3F10103BDE801891F
:101A70004FEA14454FEA114724EA054621EA074C8C
:101A800005FB07F406FB07F70CFB06F105FB0CFC56
:101A900011EB074144EB17444FEA124711EB0C419D
:101AA00044EB1C4422EA074C05FB07F206FB07F750
:101AB0000CFB06F605FB0CFC16EB074642EB174247
:101AC00016EB0C4642EB1C456A1854F1000148BF66
:101AD0007047B619524141EB0101A3F10103704770
:101AE00095F0000F37D04FEA11424FEA144721EA30
:101AF000024624EA074C02FB07F106FB07F70CFB42
:101B000006F402FB0CFC14EB074441EB17414FEACF
:101B1000154714EB0C4441EB1C4125EA074C02FB32
:101B200007F506FB07F70CFB06F602FB0CFC16EBB1
:101B3000074645EB174516EB0C4645EB1C421219C0
:101B400051F1000148BF7047B619524141EB010104
:101B5000A3F1010370474FEA14454FEA114724EA05
:101B6000054621EA074C05FB07F106FB07F70CFBCE
:101B700006F24FF0000605FB0CFC12EB074241EBAE
:101B8000174112EB0C4251EB1C4148BF70479218B1
:101B900041EB0101A3F10103704721B1826842F0DA
:101BA0000102826003E0826822F0010282607047D5
:101BB00010B504461248844208D10121401505F0B1
:101BC000A5FE0021601505F0A1FE17E00D48844236
:101BD00008D10121001505F099FE0021201505F01E
:101BE00095FE0BE00848844208D10121C80305F0A6
:101BF0008DFE00214FF4004005F088FE10BD00006E
:101C00000024014000280140003C01400146002022
:101C10008A6802F004020AB1012000E00020704747
:101C20000146C86C80B270470246002013680B4022
:101C30000BB1012000E000207047014600208A68B7
:101C400002F008020AB1012000E000207047000005
:101C500030B502460020002350680F4C20400D791B
:101C60000C6844EA05242043506090680B4C2040E7
:101C7000D1E902542C434D7944EA45042043906055
:101C8000D06A20F470000C7C641EE4B2234340EA66
:101C90000350D06230BD0000FFFEF0FFFDF7F1FF02
:101CA000F0B504460D4600200021092D11DDE06845
:101CB000A5F10A0606EB4607072606FA07F1884350
:101CC000A5F10A0606EB460603FA06F10843E060B2
:101CD0000CE0206905EB4507072606FA07F1884363
:101CE00005EB450603FA06F108432061072A0FDADF
:101CF000606B561E06EB86071F2606FA07F188431F
:101D0000561E06EB860605FA06F10843606322E0DC
:101D10000D2A0FDA206BD61F06EB86071F2606FA60
:101D200007F18843D61F06EB860605FA06F108433D
:101D3000206310E0E06AA2F10D0606EB86071F267D
:101D400006FA07F18843A2F10D0606EB860605FAAE
:101D500006F10843E062F0BD816841F0080181604E
:101D6000704721B1826842F4A002826003E0826879
:101D700022F4A00282607047816841F00401816012
:101D80007047000000B587B001214FF4017005F0E5
:101D9000ADFD4FF4004005F07DFD0220ADF80400DC
:101DA00000208DF8070001A9174800F036FA1748FF
:101DB000FFF7FEFE002002908DF80C008DF80D005C
:101DC0004FF4602004900020059001208DF8180049
:101DD00002A90E48FFF73CFF01210C48FFF7DDFE8A
:101DE0000A48FFF7B9FF00BF0848FFF726FF0028A1
:101DF000FAD10648FFF7C0FF00BF0448FFF706FF0F
:101E00000028FAD107B000BD0008014000240140BD
:101E100008B50121082005F069FD4FF48070ADF888
:101E2000000010208DF8030003208DF802006946A1
:101E3000044800F0F2F94FF48071024800F0C9FA4A
:101E400008BD0000000C014010B500241548406892
:101E500020F47040134948600846406840F4004050
:101E6000486001201049086006F060FE01200F491B
:101E7000C1F8B00106F05AFE0AE0601CC4B20120AD
:101E800006F054FEFA2C03DB00F0D8F8012010BD58
:101E90000548803800680028EFD10349091D086013
:101EA00000BFF4E700100140AC01224200002242D2
:101EB00070B500241648406820F47040144948600A
:101EC0000846406840F400404860002519E00020C2
:101ED00010490860022006F029FE01200E49C1F8D1
:101EE000B0016006040E0120C1F8B0010846D0F828
:101EF0002C0108B144F00104012006F017FE681C13
:101F0000C5B2082DE3DB002002490860204670BD01
:101F100000100140B00122420000224210B50446E8
:101F20001248406820F470401049486008464068F4
:101F300040F44050486000200D4908601CB1012069
:101F4000091F086003E000200949091F08600220FA
:101F500006F0ECFD012006490860052006F0E6FDCC
:101F600000200449C1F8B00110BD0000001001407C
:101F7000B00122420000224270B504461948406870
:101F800020F47040174948600846406840F44050CB
:101F90004860002014490860022006F0C7FD0025B3
:101FA0001CE004F0800020B101200F49091F0860E7
:101FB00003E000200C49091F08606006040E0120A0
:101FC00009490860022006F0B1FD00200749C1F868
:101FD000B001022006F0AAFD681CC5B2082DE0DBA6
:101FE00070BD000000100140B001224200002242FA
:101FF00010B50F48406820F470400D49486008460D
:10200000406840F44050486001200A4908600A498D
:10201000C1F8B001052006F089FD002005490860DF
:10202000052006F083FD00200349C1F8B00110BD72
:1020300000100140AC0122420000224210B50E48BF
:10204000406820F470400C4948600846406840F4FD
:102050004050486000200949086001200849C1F843
:10206000B001052006F062FD01200449086005204A
:1020700006F05CFD10BD000000100140AC012242E2
:10208000000022427047000070B505460C4622460B
:10209000294615480068801CFEF781FB2046E117A1
:1020A00004EB1161090A104A12681170E11704EB80
:1020B00011610912A4EB01210B4A12685170002131
:1020C00009480268A01C11540748006800F5967082
:1020D000054908600846006804490968884202D139
:1020E00003480149086070BD7C0000208400002086
:1020F0000015002010B500241848006820F070601A
:10210000164908600846006840F00060086004E076
:10211000601CC4B2012006F009FD40210F4800F008
:102120004FF9012801D1462CF2DB462C01DB0120BE
:1021300010BD002404E0601CC4B2012006F0F6FCCF
:102140004021064800F03CF908B9462CF3DB462C48
:1021500001DB0220ECE70020EAE700000008014074
:1021600010B5002404E0601CC4B2012006F0DEFCBF
:102170004021104800F024F9012801D1282CF2DB7D
:10218000002404E0601CC4B2012006F0CFFC402112
:10219000084800F015F908B93C2CF3DB232006F0C1
:1021A000C5FC4021034800F00BF908B1012010BD27
:1021B0000020FCE70008014070B50024002506E07F
:1021C0006006040EFFF7CCFF0443681CC5B2082D5F
:1021D000F6DB204670BD000010B50E48006820F008
:1021E00070600C4908600846006840F04070086064
:1021F00000224021074800F0F0F81E2006F076FC8F
:1022000001224021034800F0E8F81E2006F08EFC71
:1022100010BD00000008014070472DE9F041024662
:1022200000250026002000230024002791F803C089
:102230000CF00F0591F803C00CF0100CBCF1000F6E
:1022400003D091F802C04CEA050591F800C0BCF13A
:10225000000F31D0146800202BE04FF0010C0CFA75
:1022600000F3B1F800C00CEA03069E4220D18300BF
:102270004FF00F0C0CFA03F7BC4305FA03FC4CEAD1
:10228000040491F803C0BCF1280F06D14FF0010CF3
:102290000CFA00FCC2F814C00AE091F803C0BCF1CB
:1022A000480F05D14FF0010C0CFA00FCC2F810C029
:1022B000401C0828D1D31460B1F800C0BCF1FF0F56
:1022C00034DD546800202EE000F1080C4FF00108C6
:1022D00008FA0CF3B1F800C00CEA03069E4221D1C3
:1022E00083004FF00F0C0CFA03F7BC4305FA03FC14
:1022F0004CEA040491F803C0BCF1280F05D100F1A9
:10230000080C08FA0CF8C2F8148091F803C0BCF16C
:10231000480F07D100F1080C4FF0010808FA0CF83B
:10232000C2F81080401C0828CED35460BDE8F0816C
:10233000F0B50A46002300240021002500F00046E5
:10234000B6F1004F02D11D4EF16901E01B4E7168DC
:10235000C0F3034583B200F44016B6F5401F08D120
:1023600021F07061154E766826F07066134F7E601E
:1023700012E000F48016B6F5801F06D1032606FA97
:1023800005F4A14341F0706106E0460D360103FA01
:1023900006F6B14341F0706122B1460D360103FAF1
:1023A00006F6314300F00046B6F1004F02D1034E6D
:1023B000F16101E0014E7160F0BD000000000140DC
:1023C0000246002093680B400BB1012000E0002082
:1023D000704741617047016170470AB1016100E0D7
:1023E0004161704710B50446072301222146094880
:1023F000FFF756FC01210748FFF7B3FC00BF02219D
:102400000448FFF711FC0028F9D00248FFF708FC48
:1024100010BD0000002401402DE9F04107460C46A4
:102420000025002608E03846FFF7DCFF05440520BC
:1024300006F05CFB701CC6B2A642F4DBB5FBF4F000
:1024400080B2BDE8F081704710B580212448FEF7C6
:10245000F3F9244A24A12248FDF7BAFF2048FEF7E9
:102460007FF92249086080212148FEF7E5F9214AD9
:102470001DA11F48FDF7ACFF1D48FEF771F91E496D
:10248000086080211D48FEF7D7F91D4A16A11B4898
:10249000FDF79EFF1948FEF763F91A49086080218D
:1024A0001948FEF7C9F9194A0FA11748FDF790FF1F
:1024B000174800681749086008461349026816A0C3
:1024C000FDF77AFF064919A0FDF776FF08491BA022
:1024D000FDF772FF09491DA0FDF76EFF10BD00005A
:1024E000DC1A00209ECC0008257300008800002024
:1024F0005C1B002097CC00088C000020DC1B002017
:10250000A9CC0008900000205C1C0020B4CC00087E
:10251000C4CC000894000020B7FE20CEF120C6F7FE
:10252000A3BA25733A25640D0A000000BFCDBBA7EE
:10253000B6CB4944A3BA25730D0A0000D3C320BB10
:10254000A720C3FBA3BA25730D0A0000C3DC20201B
:102550002020C2EBA3BA25730D0A000070B5044613
:1025600000261D480588408845431B48808846F65C
:102570000401884216D118488079012812D1002020
:10258000154988712A2048812B208881002108461E
:1025900004F07AFB0120104988712B2048812A2001
:1025A000888103E00021084604F06EFB04F094FEED
:1025B00000260DE04FF48070084908614000486132
:1025C0000748046080204861086180000861761C2B
:1025D000AE42EFD370BD0000081E00200010014085
:1025E0000C0C014010B50446002C66D16C49887172
:1025F000F02008804FF4A07048800846808849F297
:10260000413188420BD06648808846F604018842F2
:1026100005D06348808845F2103188421AD12C20B9
:102620005F4908812A2048812B20888108468088BC
:1026300046F60401884205D05948808845F2103199
:10264000884206D14FF4A070554908804FF4F070CD
:102650004880A1E05248808845F21051884210D14C
:102660004FF430504E4908814FF4285048814FF4C0
:102670002C5088814FF4F07008804FF448704880E7
:102680008AE04748808841F6631188420DD12C20AA
:10269000434908812B2048812A2088814FF4F0701B
:1026A00008804FF44870488076E022203C49088139
:1026B00020204881212088816EE0012038498871DE
:1026C0004FF4A0700880F02048800846808849F2C6
:1026D0004131884205D03248808845F21031884225
:1026E00007D12C202E4908812A2048812B2088815F
:1026F0003FE02B48808846F60401884207D12C2011
:10270000274908812B2048812A20888131E02448EC
:10271000808845F21051884210D14FF43050204942
:1027200008814FF4285048814FF42C5088814FF491
:10273000487008804FF4F07048801AE0184880888C
:1027400041F6631188420DD12C20154908812A20B9
:1027500048812B2088814FF4487008804FF4F07036
:10276000488006E022200E4908812120488120204F
:1027700088810B48808846F60401884205D00848C5
:10278000808845F21031884206D14FF4F070044938
:1027900008804FF4A0704880002004F049F810BD74
:1027A000081E002070B504460D461646D3488088A2
:1027B00049F24131884205D0D048808845F2103135
:1027C000884240D1CD49488904F074FD4FF48070AF
:1027D000CB490861400048612012CA490860802046
:1027E000C7494861086180000861401008614000E5
:1027F0004861E0B2C34908608020C149486108616E
:1028000080000861BD49888904F054FD4FF4807050
:10281000BB490861400048612812BA49086080201D
:10282000B7494861086180000861401008614000B4
:102830004861E8B2B34908608020B1494861086145
:10284000800008613DE1AD48808845F21051884222
:1028500050D1AA49488904F02DFD4FF48070A84951
:102860000861400048612012A64908608020A44900
:102870004861086180000861A0494989491C88B203
:1028800004F018FD4FF480709D49086140004861D4
:10289000E0B29C4908608020994948610861800045
:1028A00008619649888904F005FD4FF480709449C9
:1028B00008614000486128129249086080209049D0
:1028C00048610861800008618C498989491C88B287
:1028D00004F0F0FC4FF480708949086140004861C1
:1028E000E8B2884908608020854948610861800015
:1028F0000861E6E08148808841F6631188427DD115
:102900007E48807920B97D480088401E001B84B233
:102910007A49488904F0CEFC4FF480707849086108
:10292000400048612012774908608020744948615E
:102930000861800008614010086140004861E0B211
:102940007049086080206E49486108618000086114
:10295000401008614000486120126A4908608020E8
:1029600067494861086180000861401008614000C3
:102970004861E0B2634908608020614948610861AC
:10298000800008615D49888904F094FC4FF48070F0
:102990005B4908614000486128125A49086080205C
:1029A0005749486108618000086140100861400093
:1029B0004861E8B253490860802051494861086184
:1029C00080000861401008614000486128124D49AC
:1029D000086080204A494861086180000861401011
:1029E000086140004861E8B24649086080204449D7
:1029F000486108618000086163E0FFE73F48808824
:102A000046F60401884249D13C488079012804D126
:102A10003A480088401E001B84B23849488904F0B7
:102A200049FC4FF48070364908614000486120122B
:102A3000344908608020324948610861800008619B
:102A40004010086140004861E0B22E4908608020D3
:102A50002B4948610861800008612849888904F091
:102A600029FC4FF480702649086140004861281213
:102A7000244908608020224948610861800008617B
:102A80004010086140004861E8B21E49086080209B
:102A90001B49486108618000086112E0174880798D
:102AA000012804D115480088401E001B84B2134938
:102AB0004889214604F018FC10498889294604F009
:102AC00013FC4FF480700E494861400048610B4888
:102AD00000890C490860802009494861086180002C
:102AE0000861401008614000486106480660802087
:102AF000486108618000086170BD0000081E002068
:102B0000001001400C0C014008B50121192004F00F
:102B1000EDFE0121FE48FFF70BFC4FF4F860ADF825
:102B2000000010208DF8030003208DF80200694694
:102B3000F848FFF772FB4FF4F861F648FFF74BFCDB
:102B40004FF6FF70ADF800006946F348FFF765FBEC
:102B50004FF6FF71F048FFF73EFC322005F0C6FF4C
:102B60000121002004F0C0FB322005F0BFFF00204F
:102B700003F0ECFDE949888008468088FF280ADBDD
:102B8000084680884FF6FF71884204D0E348808869
:102B9000B0F5134F7ED1D32004F08CFB03F09EFDE3
:102BA00003F09CFD03F09AFDDC498880084680888C
:102BB0004FF6FF7101EA0020D849888003F08EFDAE
:102BC000D64989880843D54988800846808849F2D3
:102BD000413188425ED0BF2004F06CFB03F07EFDE3
:102BE00003F07CFD03F07AFD03F078FDCB4988808B
:102BF000084680884FF6FF7101EA0020C7498880A7
:102C000003F06CFDC54989880843C449888008469B
:102C1000808846F60401884274D0D42004F04AFB30
:102C200003F05CFD03F05AFD03F058FDBB498880BA
:102C3000084680884FF6FF7101EA0020B749888076
:102C400003F04CFDB54989880843B449888008469B
:102C5000808845F21031884254D04FF45A4004F035
:102C600029FB03F03BFD4FF45B4004F023FB03F032
:102C700035FDAA498880084680884FF6FF7101EA31
:102C80000020A64988804FF45C4004F013FB03F059
:102C900025FD00E036E0A149898808439F498880E6
:102CA00008468088B0F5004F02D145F21050888068
:102CB0009A48808845F21051884223D0A12004F020
:102CC000F9FA03F00BFD9549888003F007FD93495D
:102CD0008880084680884FF6FF7101EA00208F49FE
:102CE000888003F0FBFC8D49898808438B498880E4
:102CF0000846808845F26171884203D141F663102D
:102D0000864988808548818885A0FDF755FB8348E2
:102D1000808849F2413188427ED1CF2004F0CAFA3E
:102D2000002004F0B5FAC12004F0B2FA302004F01B
:102D3000AFFAED2004F0BEFA642004F0A9FA0320F3
:102D400004F0A6FA122004F0A3FA812004F0A0FAFD
:102D5000E82004F0AFFA852004F09AFA102004F07D
:102D600097FA7A2004F094FACB2004F0A3FA3920E1
:102D700004F08EFA2C2004F08BFA002004F088FA7C
:102D8000342004F085FA022004F082FAF72004F0DF
:102D900091FA202004F07CFAEA2004F08BFA00205B
:102DA00004F076FA002004F073FAC02004F082FAEE
:102DB0001B2004F06DFAC12004F07CFA012004F01D
:102DC00067FAC52004F076FA302004F061FA30206A
:102DD00004F05EFAC72004F06DFAB72004F058FA48
:102DE000362004F067FA482004F052FA3A2004F042
:102DF00061FA552004F04CFAB12004F05BFA00208F
:102E000004F046FA1A2004F043FAB62004F052FA0D
:102E10000A2004F03DFA00E0A9E0A22004F038FA0C
:102E2000F22004F047FA002004F032FA262004F0E1
:102E300041FA012004F02CFAE02004F03BFA0F20C4
:102E400004F026FA2A2004F023FA282004F020FABD
:102E5000082004F01DFA0E2004F01AFA082004F0ED
:102E600017FA542004F014FAA92004F011FA4320B0
:102E700004F00EFA0A2004F00BFA0F2004F008FA0E
:102E8000002004F005FA002004F002FA002004F00B
:102E9000FFF9002004F0FCF9E12004F00BFA002017
:102EA00004F0F6F9152004F0F3F9172004F0F0F916
:102EB000072004F0EDF9112004F0EAF9062004F0EF
:102EC000E7F92B2004F0E4F9562004F0E1F93C2066
:102ED00004F0DEF9052004F0DBF9102004F0D8F945
:102EE0000F2004F0D5F93F2004F0D2F93F2004F080
:102EF000CFF90F2004F0CCF92B2004F0DBF90020EF
:102F000004F0C6F9002004F0C3F9012010E000002D
:102F10000002300000100140000C0140081E00209B
:102F2000204C43442049443A25780D0A0000000013
:102F300004F0AEF93F2004F0ABF92A2004F0BAF90E
:102F4000002004F0A5F9002004F0A2F9002004F00C
:102F50009FF9EF2004F09CF9112004F0ABF97820E0
:102F600005F0C4FD292004F0A5F903F09ABBFE4842
:102F7000808846F6040188427ED1112004F09AF937
:102F8000142005F0B3FDD02004F094F9072004F0DC
:102F90007FF9422004F07CF91D2004F079F9D1205A
:102FA00004F088F9002004F073F91A2004F070F995
:102FB000092004F06DF9D22004F07CF9012004F01E
:102FC00067F9222004F064F9C02004F073F910209E
:102FD00004F05EF93B2004F05BF9002004F058F99E
:102FE000022004F055F9112004F052F9C52004F034
:102FF00061F9032004F04CF9C82004F05BF90020CB
:1030000004F046F9252004F043F9212004F040F9AA
:10301000052004F03DF9002004F03AF90A2004F0FC
:1030200037F9652004F034F9252004F031F97720D0
:1030300004F02EF9502004F02BF90F2004F028F9A9
:10304000002004F025F9F82004F034F9012004F000
:103050001FF9FE2004F02EF9002004F019F90220D7
:1030600004F016F9202004F025F9362004F022F9A6
:10307000082004F00DF900E02AE03A2004F01AF9E3
:10308000552004F005F92B2004F014F9002004F079
:10309000FFF8002004F0FCF8012004F0F9F83F20CC
:1030A00004F0F6F82A2004F005F9002004F0F0F806
:1030B000002004F0EDF8012004F0EAF8DF2004F02D
:1030C000E7F8782005F012FD292004F0F3F84CE72A
:1030D000A548808845F21031884240F07C87ED2079
:1030E00004F0E8F8012004F0D3F8FE2004F0D0F852
:1030F000EE2004F0DFF8DE2004F0CAF8212004F00E
:10310000C7F8F12004F0D6F8012004F0C1F8DF2060
:1031100004F0D0F8102004F0BBF8C42004F0CAF882
:103120008F2004F0B5F8C62004F0C4F8002004F0A5
:10313000AFF8E22004F0ACF8E22004F0A9F8E220B5
:1031400004F0A6F8BF2004F0B5F8AA2004F0A0F817
:10315000B02004F0AFF80D2004F09AF8002004F03D
:1031600097F80D2004F094F8002004F091F8112055
:1031700004F08EF8002004F08BF8192004F088F891
:10318000002004F085F8212004F082F8002004F0EB
:103190007FF82D2004F07CF8002004F079F83D2021
:1031A00004F076F8002004F073F85D2004F070F865
:1031B000002004F06DF85D2004F06AF8002004F0AF
:1031C00067F8B12004F076F8802004F061F8002060
:1031D00004F05EF88B2004F05BF8002004F058F84F
:1031E000962004F055F8002004F052F8B22004F0C4
:1031F00061F8002004F04CF8002004F049F80220A7
:1032000004F046F8002004F043F8032004F040F8EE
:10321000002004F03DF8B32004F04CF8002004F046
:1032200037F8002004F034F8002004F031F80020D2
:1032300004F02EF8002004F02BF8002004F028F809
:10324000002004F025F8002004F022F8002004F00B
:103250001FF8002004F01CF8002004F019F80020EA
:1032600004F016F8002004F013F8002004F010F821
:10327000002004F00DF8002004F00AF8002004F00B
:1032800007F8002004F004F8002004F001F8002002
:1032900003F0FEFF002003F0FBFF002003F0F8FF27
:1032A000002003F0F5FF002003F0F2FFB42004F04B
:1032B00001F88B2003F0ECFF002003F0E9FF9620DB
:1032C00003F0E6FF002003F0E3FFA12003F0E0FF9E
:1032D000002003F0DDFFB52003F0ECFF022003F037
:1032E000D7FF002003F0D4FF032003F0D1FF00201C
:1032F00003F0CEFF042003F0CBFF002003F0C8FF53
:10330000B62003F0D7FF002003F0C2FF002003F037
:10331000BFFFB72003F0CEFF002003F0B9FF00206D
:1033200003F0B6FF3F2003F0B3FF002003F0B0FF2F
:103330005E2003F0ADFF002003F0AAFF642003F03D
:10334000A7FF002003F0A4FF8C2003F0A1FF0020C2
:1033500003F09EFFAC2003F09BFF002003F098FFDA
:10336000DC2003F095FF01E0081E0020002003F0A0
:103370008FFF702003F08CFF002003F089FF902066
:1033800003F086FF002003F083FFEB2003F080FFB3
:10339000002003F07DFFDC2003F07AFF002003F023
:1033A00077FFB82003F086FF002003F071FF0020B4
:1033B00003F06EFF002003F06BFF002003F068FFB6
:1033C000002003F065FF002003F062FF002003F0FF
:1033D0005FFF002003F05CFFBA2003F06BFF2420A6
:1033E00003F056FF002003F053FF002003F050FFCE
:1033F000002003F04DFFC12003F05CFF202003F00C
:1034000047FF002003F044FF542003F041FF002059
:1034100003F03EFFFF2003F03BFF002003F038FFE6
:10342000C22003F047FF0A2003F032FF002003F020
:103430002FFF042003F02CFF002003F029FFC320FE
:1034400003F038FF3C2003F023FF002003F020FFAF
:103450003A2003F01DFF002003F01AFF392003F08B
:1034600017FF002003F014FF372003F011FF0020A6
:1034700003F00EFF3C2003F00BFF002003F008FFD9
:10348000362003F005FF002003F002FF322003F096
:10349000FFFE002003F0FCFE2F2003F0F9FE0020C9
:1034A00003F0F6FE2C2003F0F3FE002003F0F0FE04
:1034B000292003F0EDFE002003F0EAFE262003F0B1
:1034C000E7FE002003F0E4FE242003F0E1FE0020EC
:1034D00003F0DEFE242003F0DBFE002003F0D8FE24
:1034E000232003F0D5FE002003F0D2FE3C2003F0A1
:1034F000CFFE002003F0CCFE362003F0C9FE0020F2
:1035000003F0C6FE322003F0C3FE002003F0C0FE2D
:103510002F2003F0BDFE002003F0BAFE2C2003F0A4
:10352000B7FE002003F0B4FE292003F0B1FE002016
:1035300003F0AEFE262003F0ABFE002003F0A8FE51
:10354000242003F0A5FE002003F0A2FE242003F0B7
:103550009FFE002003F09CFE232003F099FE002034
:1035600003F096FEC42003F0A5FE622003F090FE57
:10357000002003F08DFE052003F08AFE002003F0FA
:1035800087FE842003F084FE002003F081FEF020FB
:1035900003F07EFE002003F07BFE182003F078FE8F
:1035A000002003F075FEA42003F072FE002003F05B
:1035B0006FFE182003F06CFE002003F069FE50201F
:1035C00003F066FE002003F063FE0C2003F060FEB3
:1035D000002003F05DFE172003F05AFE002003F0E8
:1035E00057FE952003F054FE002003F051FEF32017
:1035F00003F04EFE002003F04BFEE62003F048FEF1
:10360000002003F045FEC52003F054FE322003F0F5
:103610003FFE002003F03CFE442003F039FE002072
:1036200003F036FE652003F033FE002003F030FE89
:10363000762003F02DFE002003F02AFE882003F000
:1036400027FE002003F024FEC62003F033FE2020D6
:1036500003F01EFE002003F01BFE172003F018FEEF
:10366000002003F015FE012003F012FE002003F0FD
:103670000FFEC72003F01EFE002003F009FE00200D
:1036800003F006FE002003F003FE002003F000FE1E
:10369000C82003F00FFE002003F0FAFD002003F025
:1036A000F7FD002003F0F4FD002003F0F1FDC92038
:1036B00003F000FE002003F0EBFD002003F0E8FD26
:1036C000002003F0E5FD002003F0E2FD002003F000
:1036D000DFFD002003F0DCFD002003F0D9FD002019
:1036E00003F0D6FD002003F0D3FD002003F0D0FD51
:1036F000002003F0CDFD002003F0CAFD002003F000
:10370000C7FD002003F0C4FD002003F0C1FD002030
:1037100003F0BEFDE02003F0CDFD162003F0B8FD60
:10372000002003F0B5FD1C2003F0B2FD002003F0E3
:10373000AFFD212003F0ACFD002003F0A9FD3620F1
:1037400003F0A6FD002003F0A3FD462003F0A0FD3A
:10375000002003F09DFD522003F09AFD002003F0AD
:1037600097FD642003F094FD002003F091FD7A2082
:1037700003F08EFD002003F08BFD8B2003F088FD0D
:10378000002003F085FD992003F082FD002003F066
:103790007FFDA82003F07CFD002003F079FDB92017
:1037A00003F076FD002003F073FDC42003F070FDEC
:1037B000002003F06DFDCA2003F06AFD002003F035
:1037C00067FDD22003F064FD002003F061FDD920E5
:1037D00003F05EFD002003F05BFDE02003F058FDE8
:1037E000002003F055FDF32003F052FD002003F00C
:1037F0004FFDE12003F05EFD162003F049FD00209F
:1038000003F046FD1C2003F043FD002003F040FDC3
:10381000222003F03DFD002003F03AFD362003F0A6
:1038200037FD002003F034FD452003F031FD00207A
:1038300003F02EFD522003F02BFD002003F028FDA5
:10384000642003F025FD002003F022FD7A2003F020
:103850001FFD002003F01CFD8B2003F019FD00204C
:1038600003F016FD992003F013FD002003F010FD76
:10387000A82003F00DFD002003F00AFDB92003F09D
:1038800007FD002003F004FDC42003F001FD00202B
:1038900003F0FEFCCA2003F0FBFC002003F0F8FC60
:1038A000D22003F0F5FC002003F0F2FCD82003F056
:1038B000EFFC002003F0ECFCE02003F0E9FC00202A
:1038C00003F0E6FCF32003F0E3FC002003F0E0FC4F
:1038D000E22003F0EFFC052003F0DAFC002003F007
:1038E000D7FC0B2003F0D4FC002003F0D1FC1B20FC
:1038F00003F0CEFC002003F0CBFC342003F0C8FC26
:10390000002003F0C5FC442003F0C2FC002003F0BB
:10391000BFFC4F2003F0BCFC002003F0B9FC612089
:1039200003F0B6FC002003F0B3FC792003F0B0FCF8
:10393000002003F0ADFC882003F0AAFC002003F077
:10394000A7FC972003F0A4FC002003F0A1FCA62014
:1039500003F09EFC002003F09BFCB72003F098FCD2
:10396000002003F095FCC22003F092FC002003F03D
:103970008FFCC72003F08CFC002003F089FCD120D1
:1039800003F086FC002003F083FCD62003F080FCCB
:10399000002003F07DFCDD2003F07AFC002003F022
:1039A00077FCF32003F074FC002003F071FCE320AB
:1039B00003F080FC052003F06BFC002003F068FCA2
:1039C0000A2003F065FC002003F062FC1C2003F0D9
:1039D0005FFC002003F05CFC332003F059FC002066
:1039E00003F056FC442003F053FC002003F050FC8D
:1039F000502003F04DFC002003F04AFC622003F04D
:103A000047FC002003F044FC782003F041FC002038
:103A100003F03EFC882003F03BFC002003F038FC60
:103A2000972003F035FC002003F032FCA62003F0C1
:103A30002FFC002003F02CFCB72003F029FC002011
:103A400003F026FCC22003F023FC002003F020FC3E
:103A5000C72003F01DFC002003F01AFCD12003F066
:103A600017FC002003F014FCD52003F011FC00200B
:103A700003F00EFCDD2003F00BFC002003F008FC3B
:103A8000F32003F005FC002003F002FCE42003F027
:103A900011FC012003F0FCFB002003F0F9FB0120E6
:103AA00003F0F6FB002003F0F3FB022003F0F0FB31
:103AB000002003F0EDFB2A2003F0EAFB002003F0D6
:103AC000E7FB3C2003F0E4FB002003F0E1FB4B208C
:103AD00003F0DEFB002003F0DBFB5D2003F0D8FBEE
:103AE000002003F0D5FB742003F0D2FB002003F08C
:103AF000CFFB842003F0CCFB002003F0C9FB932014
:103B000003F0C6FB002003F0C3FBA22003F0C0FBC0
:103B1000002003F0BDFBB32003F0BAFB002003F04C
:103B2000B7FBBE2003F0B4FB002003F0B1FBC420C0
:103B300003F0AEFB002003F0ABFBCD2003F0A8FBAD
:103B4000002003F0A5FBD32003F0A2FB002003F02C
:103B50009FFBDD2003F09CFB002003F099FBF3208A
:103B600003F096FB002003F093FBE52003F0A2FB9B
:103B7000002003F08DFB002003F08AFB002003F0FF
:103B800087FB002003F084FB022003F081FB002070
:103B900003F07EFB292003F07BFB002003F078FB81
:103BA0003C2003F075FB002003F072FB4B2003F078
:103BB0006FFB002003F06CFB5D2003F069FB00202D
:103BC00003F066FB742003F063FB002003F060FB4E
:103BD000842003F05DFB002003F05AFB932003F0E8
:103BE00057FB002003F054FBA22003F051FB002000
:103BF00003F04EFBB32003F04BFB002003F048FB27
:103C0000BE2003F045FB002003F042FBC42003F07C
:103C10003FFB002003F03CFBCD2003F039FB0020EC
:103C200003F036FBD32003F033FB002003F030FB1E
:103C3000DC2003F02DFB002003F02AFBF32003F02F
:103C400027FB002003F024FBE62003F033FB1120C8
:103C500003F01EFB002003F01BFB342003F018FBD5
:103C6000002003F015FB562003F012FB002003F0A8
:103C70000FFB762003F00CFB002003F009FB7720FC
:103C800003F006FB002003F003FB662003F000FBBB
:103C9000002003F0FDFA882003F0FAFA002003F078
:103CA000F7FA992003F0F4FA002003F0F1FABB20B0
:103CB00003F0EEFA002003F0EBFA992003F0E8FAA3
:103CC000002003F0E5FA662003F0E2FA002003F09A
:103CD000DFFA552003F0DCFA002003F0D9FA552072
:103CE00003F0D6FA002003F0D3FA452003F0D0FA0F
:103CF000002003F0CDFA432003F0CAFA002003F0BD
:103D0000C7FA442003F0C4FA002003F0C1FAE72008
:103D100003F0D0FA322003F0BBFA002003F0B8FA27
:103D2000552003F0B5FA002003F0B2FA762003F034
:103D3000AFFA002003F0ACFA662003F0A9FA0020E5
:103D400003F0A6FA672003F0A3FA002003F0A0FA1C
:103D5000672003F09DFA002003F09AFA872003F011
:103D600097FA002003F094FA992003F091FA0020CA
:103D700003F08EFABB2003F08BFA002003F088FAE0
:103D8000992003F085FA002003F082FA772003F0EF
:103D90007FFA002003F07CFA442003F079FA002037
:103DA00003F076FA562003F073FA002003F070FA5D
:103DB000232003F06DFA002003F06AFA332003F0A9
:103DC00067FA002003F064FA452003F061FA00204E
:103DD00003F05EFAE82003F06DFA002003F058FAD1
:103DE000002003F055FA992003F052FA002003F066
:103DF0004FFA872003F04CFA002003F049FA88209C
:103E000003F046FA002003F043FA772003F040FA6B
:103E1000002003F03DFA662003F03AFA002003F098
:103E200037FA882003F034FA002003F031FAAA2090
:103E300003F02EFA002003F02BFABB2003F028FA3F
:103E4000002003F025FA992003F022FA002003F065
:103E50001FFA662003F01CFA002003F019FA55201F
:103E600003F016FA002003F013FA552003F010FABD
:103E7000002003F00DFA442003F00AFA002003F0BA
:103E800007FA442003F004FA002003F001FA552059
:103E900003F0FEF9002003F0FBF9E92003F00AFA31
:103EA000AA2003F0F5F9002003F0F2F9002003F056
:103EB000EFF9002003F0ECF9002003F0FBF9AA2051
:103EC00003F0E6F9CF2003F0F5F9002003F0E0F964
:103ED000002003F0DDF9002003F0DAF9002003F000
:103EE000D7F9002003F0D4F9002003F0D1F9002025
:103EF00003F0CEF9002003F0CBF9002003F0C8F95D
:103F0000002003F0C5F9002003F0C2F9002003F0FF
:103F1000BFF9002003F0BCF9002003F0B9F900203C
:103F200003F0B6F9002003F0B3F9002003F0B0F974
:103F3000F02003F0BFF9002003F0AAF9502003F0AD
:103F4000A7F9002003F0A4F9002003F0A1F9002054
:103F500003F09EF9F32003F0ADF9002003F098F987
:103F6000F92003F0A7F9062003F092F9102003F0DE
:103F70008FF9292003F08CF9002003F089F93A2009
:103F800003F098F9552003F083F9112003F092F91A
:103F9000642004F0ABFD292003F08CF9352003F0F8
:103FA00089F9002003F074F9512003F083F9FF2010
:103FB00003F06EF9532003F07DF92C2003F068F92B
:103FC000552003F077F9822003F062F92C2003F0EA
:103FD00071F902F066BBFE48808845F210518842B4
:103FE0007ED155214FF4704003F07EF9AA214FF2A3
:103FF000010003F079F952214FF2020003F074F945
:1040000008214FF2030003F06FF901214FF2040081
:1040100003F06AF90D214FF4304003F065F90D21EA
:104020004BF2010003F060F90D214BF2020003F0A6
:104030005BF934214FF4364003F056F934214BF24A
:10404000016003F051F934214BF2026003F04CF9A6
:104050000D214FF4314003F047F90D214BF20110CF
:1040600003F042F90D214BF2021003F03DF9342127
:104070004FF4374003F038F934214BF2017003F06C
:1040800033F934214BF2027003F02EF900214FF482
:10409000324003F029F900214BF2012003F024F90A
:1040A00000214BF2022003F01FF924214FF4384085
:1040B00003F01AF924214BF6010003F015F924212D
:1040C0004BF6020003F010F901214FF43F4003F0DA
:1040D0000BF90F214FF4334003F006F90F2100E0F4
:1040E000FEE34BF2013003F0FFF80F214BF20230F8
:1040F00003F0FAF834214FF4394003F0F5F8342195
:104100004BF6011003F0F0F834214BF6021003F0E7
:10411000EBF808214FF4354003F0E6F808214BF2A4
:10412000015003F0E1F808214BF2025003F0DCF8F3
:1041300003214FF4424003F0D7F824214FF43A40D2
:1041400003F0D2F824214BF6012003F0CDF824210E
:104150004BF6022003F0C8F800214FF43C4003F076
:10416000C3F878214BF6014003F0BEF800214BF66E
:10417000024003F0B9F800214FF43D4003F0B4F8D9
:1041800078214BF6015003F0AFF800214BF60250B6
:1041900003F0AAF800214FF43E4003F0A5F8642193
:1041A0004BF6016003F0A0F800214FF4514003F0FA
:1041B0009BF833214DF2011003F096F800214DF2E7
:1041C000021003F091F834214DF2031003F08CF843
:1041D00000214DF2041003F087F83A214DF205104A
:1041E00003F082F800214DF2061003F07DF84A2119
:1041F0004DF2071003F078F800214DF2081003F09B
:1042000073F85C214DF2091003F06EF800214DF2B5
:104210000A1003F069F881214DF20B1003F064F8E5
:1042200000214DF20C1003F05FF8A6214DF20D10A5
:1042300003F05AF800214DF20E1003F055F8E52175
:104240004DF20F1003F050F801214DF2101003F061
:104250004BF813214DF2111003F046F801214DF2F5
:10426000121003F041F854214DF2131003F03CF802
:1042700001214DF2141003F037F882214DF2151090
:1042800003F032F801214DF2161003F02DF8CA2187
:104290004DF2171003F028F802214DF2181003F028
:1042A00023F800214DF2191003F01EF802214DF2FF
:1042B0001A1003F019F801214DF21B1003F014F845
:1042C00002214DF21C1003F00FF834214DF21D10A5
:1042D00003F00AF802214DF21E1003F005F86721E1
:1042E0004DF21F1003F000F802214DF2201002F0F1
:1042F000FBFF84214DF2211002F0F6FF02214DF266
:10430000221002F0F1FFA4214DF2231002F0ECFF85
:1043100002214DF2241002F0E7FFB7214DF22510E3
:1043200002F0E2FF02214DF2261002F0DDFFCF2164
:104330004DF2271002F0D8FF02214DF2281002F0B2
:10434000D3FFDE214DF2291002F0CEFF02214DF203
:104350002A1002F0C9FFF2214DF22B1002F0C4FF27
:1043600002214DF22C1002F0BFFFFE214DF22D1064
:1043700002F0BAFF03214DF22E1002F0B5FF10211A
:104380004DF22F1002F0B0FF03214DF2301002F079
:10439000ABFF33214DF2311002F0A6FF03214DF2A5
:1043A000321002F0A1FF6D214DF2331002F09CFF9C
:1043B00000214FF4524002F097FF33214DF20120CB
:1043C00002F092FF00214DF2022002F08DFF01E089
:1043D000081E002034214DF2032002F085FF002149
:1043E0004DF2042002F080FF3A214DF2052002F048
:1043F0007BFF00214DF2062002F076FF4A214DF2AC
:10440000072002F071FF00214DF2082002F06CFF3E
:104410005C214DF2092002F067FF00214DF20A20D5
:1044200002F062FF81214DF20B2002F05DFF0021BE
:104430004DF20C2002F058FFA6214DF20D2002F0A3
:1044400053FF00214DF20E2002F04EFFE5214DF208
:104450000F2002F049FF01214DF2102002F044FF2D
:1044600013214DF2112002F03FFF01214DF21220E5
:1044700002F03AFF54214DF2132002F035FF0121E2
:104480004DF2142002F030FF82214DF2152002F08F
:104490002BFF01214DF2162002F026FFCA214DF21A
:1044A000172002F021FF02214DF2182002F01CFF1C
:1044B00000214DF2192002F017FF02214DF21A20BF
:1044C00002F012FF01214DF21B2002F00DFF02212C
:1044D0004DF21C2002F008FF34214DF21D2002F0A5
:1044E00003FF02214DF21E2002F0FEFE67214DF275
:1044F0001F2002F0F9FE02214DF2202002F0F4FE0E
:1045000084214DF2212002F0EFFE02214DF2222003
:1045100002F0EAFEA4214DF2232002F0E5FE022182
:104520004DF2242002F0E0FEB7214DF2252002F0EA
:10453000DBFE02214DF2262002F0D6FECF214DF205
:10454000272002F0D1FE02214DF2282002F0CCFEFD
:10455000DE214DF2292002F0C7FE02214DF22A2071
:1045600002F0C2FEF2214DF22B2002F0BDFE02212C
:104570004DF22C2002F0B8FEFE214DF22D2002F06B
:10458000B3FE03214DF22E2002F0AEFE10214DF2BB
:104590002F2002F0A9FE03214DF2302002F0A4FEEC
:1045A00033214DF2312002F09FFE03214DF23220E3
:1045B00002F09AFE6D214DF2332002F095FE0021AB
:1045C0004FF4534002F090FE33214DF2013002F0DF
:1045D0008BFE00214DF2023002F086FE34214DF2B6
:1045E000033002F081FE00214DF2043002F07CFE27
:1045F0003A214DF2053002F077FE00214DF20630EF
:1046000002F072FE4A214DF2073002F06DFE0021E9
:104610004DF2083002F068FE5C214DF2093002F0E4
:1046200063FE00214DF20A3002F05EFE81214DF260
:104630000B3002F059FE00214DF20C3002F054FE16
:10464000A6214DF20D3002F04FFE00214DF20E304A
:1046500002F04AFEE5214DF20F3002F045FE012145
:104660004DF2103002F040FE13214DF2113002F0F5
:104670003BFE01214DF2123002F036FE54214DF284
:10468000133002F031FE01214DF2143002F02CFE05
:1046900082214DF2153002F027FE01214DF2163035
:1046A00002F022FECA214DF2173002F01DFE022157
:1046B0004DF2183002F018FE00214DF2193002F0D0
:1046C00013FE02214DF21A3002F00EFE01214DF2CE
:1046D0001B3002F009FE02214DF21C3002F004FEF4
:1046E00034214DF21D3002F0FFFD02214DF21E304B
:1046F00002F0FAFD67214DF21F3002F0F5FD0221B4
:104700004DF2203002F0F0FD84214DF2213002F014
:10471000EBFD02214DF2223002F0E6FDA4214DF224
:10472000233002F0E1FD02214DF2243002F0DCFDE5
:10473000B7214DF2253002F0D7FD02214DF226308F
:1047400002F0D2FDCF214DF2273002F0CDFD022143
:104750004DF2283002F0C8FDDE214DF2293002F082
:10476000C3FD02214DF22A3002F0BEFDF2214DF2CE
:104770002B3002F0B9FD02214DF22C3002F0B4FDD5
:10478000FE214DF22D3002F0AFFD03214DF22E300F
:1047900002F0AAFD10214DF22F3002F0A5FD0321F9
:1047A0004DF2303002F0A0FD33214DF2313002F0F5
:1047B0009BFD03214DF2323002F096FD6D214DF24A
:1047C000333002F091FD00214FF4544002F08CFD93
:1047D00033214DF2014002F087FD00214DF20240ED
:1047E00002F082FD34214DF2034002F07DFD0021F4
:1047F0004DF2044002F078FD3A214DF2054002F0FE
:1048000073FD00214DF2064002F06EFD4A214DF28B
:10481000074002F069FD00214DF2084002F064FDFE
:104820005C214DF2094002F05FFD00214DF20A408B
:1048300002F05AFD81214DF20B4002F055FD00219E
:104840004DF20C4002F050FDA6214DF20D4002F059
:104850004BFD00214DF20E4002F046FDE5214DF2E8
:104860000F4002F041FD01214DF2104002F03CFDED
:1048700013214DF2114002F037FD01214DF212409B
:1048800002F032FD54214DF2134002F02DFD0121C2
:104890004DF2144002F028FD82214DF2154002F045
:1048A00023FD01214DF2164002F01EFDCA214DF2FA
:1048B000174002F019FD02214DF2184002F014FDDC
:1048C00000214DF2194002F00FFD02214DF21A4075
:1048D00002F00AFD01214DF21B4002F005FD00E04F
:1048E00004E302214DF21C4002F0FEFC34214DF2A3
:1048F0001D4002F0F9FC02214DF21E4002F0F4FCD2
:1049000067214DF21F4002F0EFFC02214DF22040E2
:1049100002F0EAFC84214DF2214002F0E5FC022184
:104920004DF2224002F0E0FCA4214DF2234002F0BF
:10493000DBFC02214DF2244002F0D6FCB7214DF2FF
:10494000254002F0D1FC02214DF2264002F0CCFCC1
:10495000CF214DF2274002F0C7FC02214DF2284042
:1049600002F0C2FCDE214DF2294002F0BDFC022122
:104970004DF22A4002F0B8FCF2214DF22B4002F039
:10498000B3FC02214DF22C4002F0AEFCFE214DF2B0
:104990002D4002F0A9FC03214DF22E4002F0A4FCB0
:1049A00010214DF22F4002F09FFC03214DF23040C8
:1049B00002F09AFC33214DF2314002F095FC0321C4
:1049C0004DF2324002F090FC6D214DF2334002F086
:1049D0008BFC00214FF4554002F086FC33214DF250
:1049E000015002F081FC00214DF2025002F07CFCEB
:1049F00034214DF2035002F077FC00214DF20450B7
:104A000002F072FC3A214DF2055002F06DFC0021DB
:104A10004DF2065002F068FC4A214DF2075002F0B8
:104A200063FC00214DF2085002F05EFC5C214DF267
:104A3000095002F059FC00214DF20A5002F054FCDA
:104A400081214DF20B5002F04FFC00214DF20C5031
:104A500002F04AFCA6214DF20D5002F045FC002167
:104A60004DF20E5002F040FCE5214DF20F5002F0E5
:104A70003BFC01214DF2105002F036FC13214DF2A7
:104A8000115002F031FC01214DF2125002F02CFCC9
:104A900054214DF2135002F027FC01214DF2145025
:104AA00002F022FC82214DF2155002F01DFC012182
:104AB0004DF2165002F018FCCA214DF2175002F0C8
:104AC00013FC02214DF2185002F00EFC00214DF2B1
:104AD000195002F009FC02214DF21A5002F004FCB8
:104AE00001214DF21B5002F0FFFB02214DF21C5040
:104AF00002F0FAFB34214DF21D5002F0F5FB0221C9
:104B00004DF21E5002F0F0FB67214DF21F5002F0F3
:104B1000EBFB02214DF2205002F0E6FB84214DF226
:104B2000215002F0E1FB02214DF2225002F0DCFBA9
:104B3000A4214DF2235002F0D7FB02214DF2245064
:104B400002F0D2FBB7214DF2255002F0CDFB02213D
:104B50004DF2265002F0C8FBCF214DF2275002F053
:104B6000C3FB02214DF2285002F0BEFBDE214DF2C4
:104B7000295002F0B9FB02214DF22A5002F0B4FB99
:104B8000F2214DF22B5002F0AFFB02214DF22C50DE
:104B900002F0AAFBFE214DF22D5002F0A5FB0321ED
:104BA0004DF22E5002F0A0FB10214DF22F5002F0DA
:104BB0009BFB03214DF2305002F096FB33214DF266
:104BC000315002F091FB03214DF2325002F08CFB88
:104BD0006D214DF2335002F087FB00214FF4564017
:104BE00002F082FB33214DF2016002F07DFB0021D7
:104BF0004DF2026002F078FB34214DF2036002F0C6
:104C000073FB00214DF2046002F06EFB3A214DF27D
:104C1000056002F069FB00214DF2066002F064FBC2
:104C20004A214DF2076002F05FFB00214DF208605F
:104C300002F05AFB5C214DF2096002F055FB0021A5
:104C40004DF20A6002F050FB81214DF20B6002F040
:104C50004BFB00214DF20C6002F046FBA6214DF209
:104C60000D6002F041FB00214DF20E6002F03CFBB2
:104C7000E5214DF20F6002F037FB01214DF210608B
:104C800002F032FB13214DF2116002F02DFB0121E5
:104C90004DF2126002F028FB54214DF2136002F035
:104CA00023FB01214DF2146002F01EFB82214DF224
:104CB000156002F019FB01214DF2166002F014FBA1
:104CC000CA214DF2176002F00FFB02214DF218606D
:104CD00002F00AFB00214DF2196002F005FB0221EF
:104CE0004DF21A6002F000FB01214DF21B6002F050
:104CF000FBFA02214DF21C6002F0F6FA34214DF26B
:104D00001D6002F0F1FA02214DF21E6002F0ECFA91
:104D100067214DF21F6002F0E7FA02214DF2206098
:104D200002F0E2FA84214DF2216002F0DDFA022164
:104D30004DF2226002F0D8FAA4214DF2236002F075
:104D4000D3FA02214DF2246002F0CEFAB7214DF2DF
:104D5000256002F0C9FA02214DF2266002F0C4FA81
:104D6000CF214DF2276002F0BFFA02214DF22860F8
:104D700002F0BAFADE214DF2296002F0B5FA022102
:104D80004DF22A6002F0B0FAF2214DF22B6002F0EF
:104D9000ABFA02214DF22C6002F0A6FAFE214DF290
:104DA0002D6002F0A1FA03214DF22E6002F09CFA70
:104DB00010214DF22F6002F097FA03214DF230607E
:104DC00002F092FA33214DF2316002F08DFA0321A4
:104DD0004DF2326002F088FA6D214DF2336002F03C
:104DE00083FA55214FF4704002F07EFAAA214FF267
:104DF000010002F079FA52214FF2020002F074FA37
:104E000008214FF2030002F06FFA00214FF2040074
:104E100002F06AFACC214FF4314002F065FA002129
:104E20004BF2011002F060FA05214FF4364002F017
:104E30005BFA70214FF4374002F056FA70214BF2C2
:104E4000017002F051FA01214FF4384002F04CFA9F
:104E500003214BF6010002F047FA03214BF6020052
:104E600002F042FA03214BF6030002F03DFA022160
:104E70004FF43C4002F038FA00214BF6014002F0BA
:104E800033FA00214BF6024002F02EFAD0214FF403
:104E9000494002F029FA02214CF6011002F024FAEE
:104EA00050214CF6021002F01FFA50214CF603106C
:104EB00002F01AFA50214CF6041002F015FA002103
:104EC0004FF4545002F010FA55214FF4685002F09C
:104ED0000BFA4FF4885002F0EDF9782003F026FE2B
:104EE0004FF4245002F0E6F901F0DBBBFE48808865
:104EF00049F2253188427DD147F6F001E52002F0E4
:104F0000F3F94FF48071012002F0EEF94FF4E06103
:104F1000022002F0E9F941F23001032002F0E4F945
:104F20000021042002F0E0F940F20221082002F002
:104F3000DBF90021092002F0D7F900210A2002F054
:104F4000D3F900210C2002F0CFF900210D2002F04E
:104F5000CBF900210F2002F0C7F90021102002F048
:104F6000C3F90721112002F0BFF90021122002F03D
:104F7000BBF90021132002F0B7F90021072002F04D
:104F8000B3F941F29061102002F0AEF940F227210E
:104F9000112002F0A9F99D21122002F0A5F94FF489
:104FA000C851132002F0A0F92521292002F09CF914
:104FB0000D212B2002F098F90721302002F094F9FE
:104FC00040F20331312002F08FF90321322002F048
:104FD0008BF940F20621352002F086F908213620AF
:104FE00002F082F940F20641372002F07DF94FF4D9
:104FF000417100E058E0382002F076F907213920AD
:1050000002F072F940F202613C2002F06DF90821D1
:105010003D2002F069F90021502002F065F9EF21EE
:10502000512002F061F90021522002F05DF940F2B6
:105030003F11532002F058F94FF42741602002F04D
:1050400053F90121612002F04FF900216A2002F09A
:105050004BF90021802002F047F90021812002F065
:1050600043F90021822002F03FF90021832002F061
:105070003BF90021842002F037F90021852002F05D
:1050800033F91021902002F02FF94FF4C0619220E3
:1050900002F02AF940F23311072002F025F922210B
:1050A000002002F021F91FE78F48808849F228315B
:1050B00088427DD141F28F01EC2002F015F941F2D6
:1050C0003421EF2002F010F94FF48071012002F03A
:1050D0000BF94FF4E061022002F006F941F23001D1
:1050E000032002F001F90021042002F0FDF840F253
:1050F0000221082002F0F8F80021092002F0F4F85B
:1051000000210A2002F0F0F801210C2002F0ECF856
:1051100000210D2002F0E8F800210F2002F0E4F851
:105120000021102002F0E0F80721112002F0DCF845
:105130000021122002F0D8F80021132002F0D4F848
:105140000121072002F0D0F8322003F0CFFC41F219
:105150009041102002F0C8F840F22721112002F0FF
:10516000C3F8322003F0C2FC8A21122002F0BCF8FE
:10517000322003F0BBFC4FF4D051132002F0B4F8FE
:105180000621292002F0B0F80D212B2002F0ACF806
:10519000322003F0ABFC0021202002F0A5F8002112
:1051A000212002F0A1F8322003F0A0FC002100E051
:1051B00075E0302002F098F840F20461312002F0EE
:1051C00093F840F20531322002F08EF800213520AC
:1051D00002F08AF840F60941362002F085F84FF4D3
:1051E0000171372002F080F840F20131382002F0DE
:1051F0007BF840F20771392002F076F800213C205C
:1052000002F072F840F60A213D2002F06DF83220DB
:1052100003F06CFC0021502002F066F8EF215120D1
:1052200002F062F80021522002F05EF840F23F11D5
:10523000532002F059F84FF42741602002F054F84F
:105240000121612002F050F800216A2002F04CF8A0
:105250000021802002F048F80021812002F044F86B
:105260000021822002F040F80021832002F03CF867
:105270000021842002F038F80021852002F034F863
:105280001021902002F030F84FF4C061922002F01B
:105290002BF840F23311072002F026F824E61248DA
:1052A000808849F2203188427ED10021084602F0F0
:1052B0001BF84FF48071012002F016F84FF4E06102
:1052C000022002F011F841F23001032002F00CF844
:1052D0000021042002F008F840F20221082002F028
:1052E00003F80021092001E0081E002001F0FCFF66
:1052F00000210A2001F0F8FF01210C2001F0F4FF49
:1053000000210D2001F0F0FF00210F2001F0ECFF43
:10531000322003F0EBFB40F20111072001F0E4FF23
:10532000322003F0E3FB4FF48651102001F0DCFF44
:105330000721112001F0D8FF4FF48871122001F0ED
:10534000D3FF4FF43061132001F0CEFF002129205C
:1053500001F0CAFF44F210012B2001F0C5FF00212B
:10536000502001F0C1FFEF21512001F0BDFF0021CD
:10537000522001F0B9FF40F23F11532001F0B4FF79
:105380004FF41C51602001F0AFFF0121612001F0BA
:10539000ABFF00216A2001F0A7FF0021802001F06F
:1053A000A3FF0021812000E030E001F09DFF0021FB
:1053B000822001F099FF0021832001F095FF002158
:1053C000842001F091FF0021852001F08DFF102144
:1053D000902001F089FF0021922001F085FF01213A
:1053E000932001F081FF4FF48871952001F07CFF3C
:1053F0000021972001F078FF0021982001F074FF30
:1054000040F27311072001F06FFF6DE5FE488088C0
:1054100049F2313188427DD141F21401E72001F097
:1054200063FF4FF48071012001F05EFF4FF40071C3
:10543000022001F059FF41F23801032001F054FF2E
:1054400040F20221082001F04FFF0021092001F065
:105450004BFF00210A2001F047FF00210C2001F042
:1054600043FF00210D2001F03FFF00210F2001F03C
:105470003BFF0021102001F037FF0721112001F030
:1054800033FF0021122001F02FFF0021132001F033
:105490002BFFC82003F02AFB41F29061102001F09D
:1054A00023FF40F22721112001F01EFF322003F0DC
:1054B0001DFB0C21122001F017FF322003F016FB18
:1054C0004FF40061132001F00FFF1121292001F09A
:1054D0000BFF0B212B2001F007FF322003F006FB0E
:1054E0000021202001F000FF40F23F11212001F0B7
:1054F000FBFE0021302001F0F7FE4FF483713120D4
:1055000001F0F2FE0021322001F0EEFE4FF40171B5
:10551000352000E064E001F0E7FE41F20A61362048
:1055200001F0E2FE40F20771372001F0DDFE4FF49A
:105530008371382001F0D8FE40F20771392001F064
:10554000D3FE40F202413C2001F0CEFE40F60F4176
:105550003D2001F0C9FE0021502001F0C5FEEF21E1
:10556000512001F0C1FE0021522001F0BDFE40F2A9
:105570003F11532001F0B8FE4FF41C51602001F0A0
:10558000B3FE0121612001F0AFFE00216A2001F08D
:10559000ABFE0021802001F0A7FE0021812001F058
:1055A000A3FE0021822001F09FFE0021832001F054
:1055B0009BFE0021842001F097FE0021852001F050
:1055C00093FE1021902001F08FFE4FF4C0619220D5
:1055D00001F08AFE40F23311072001F085FE83E4DA
:1055E0008948808845F2084188427DD14FF4807116
:1055F000012001F079FE4FF4E061022001F074FE19
:1056000041F23001032001F06FFE0021042001F07F
:105610006BFE40F20721082001F066FE0021092000
:1056200001F062FE00210A2001F05EFE00210C2044
:1056300001F05AFE00210D2001F056FE00210F203E
:1056400001F052FE142003F051FA41F2B061102033
:1056500001F04AFE0121112001F046FE0121172030
:1056600001F042FE4FF49C71122001F03DFE4FF418
:105670000061132001F038FE0921292001F034FED9
:1056800009212A2001F030FE0021A42001F02CFE87
:105690000021502001F028FEEF21512001F024FECE
:1056A0000021522001F020FE40F23F11532001F072
:1056B0001BFE4FF41C51602001F016FE01216120F9
:1056C00001F012FE00216A2001F00EFE0021802070
:1056D00001F00AFE0021812001F006FE0021822057
:1056E00001F002FE002100E024E0832001F0FCFD37
:1056F0000021842001F0F8FD0021852001F0F4FD57
:105700001321902001F0F0FD0021922001F0ECFD2A
:105710000321932001F0E8FD4FF48871952001F0FA
:10572000E3FD40F27311072001F0DEFD322003F0AB
:10573000DDF9B8E43448808841F2055188427DD1D2
:105740000021072001F0D0FD322003F0CFF94FF403
:105750008E71122001F0C8FD0121A42001F0C4FDCA
:105760000F21082001F0C0FD08210A2001F0BCFD36
:1057700008210D2001F0B8FD40F20771302001F042
:10578000B3FD0721312001F0AFFD40F2036132206B
:1057900001F0AAFD4FF4E061332001F0A5FD40F2D5
:1057A0000221342001F0A0FD0221352001F09CFDF2
:1057B00041F60F71362001F097FD40F20771372056
:1057C00001F092FD0021382001F08EFD00213920EA
:1057D00001F08AFD40F207713A2001F085FD0021B9
:1057E0003B2001F081FD07213C2001F07DFD0021DF
:1057F0003D2001F079FD322003F078F901210720E6
:1058000001F072FD012101E0081E0020172001F0C7
:105810006BFD322003F06AF94FF4BD51102001F006
:1058200063FD40F21721112001F05EFD4FF48F71EE
:10583000122001F059FD4FF4706100E098E0132050
:1058400001F052FD00212A2001F04EFD0A212920FD
:1058500001F04AFD4FF49F71122001F045FD002137
:10586000502001F041FDEF21512001F03DFD0021CC
:10587000522001F039FD40F23F11532001F034FD78
:105880004FF41C51602001F02FFD0121612001F037
:105890002BFD00216A2001F027FD0021802001F06E
:1058A00023FD0021812001F01FFD0021822001F055
:1058B0001BFD0021832001F017FD0021842001F051
:1058C00013FD0021852001F00FFD1321902001F030
:1058D0000BFD4FF44071922001F006FD052193204D
:1058E00001F002FD0021952001F0FEFC002197202F
:1058F00001F0FAFC0021982001F0F6FC4FF48071D1
:10590000012001F0F1FC4FF4E061022001F0ECFC19
:1059100041F23801032001F0E7FC0021042001F0EE
:10592000E3FC00210C2001F0DFFC00210F2001F03E
:10593000DBFC0021202001F0D7FC0021212001F018
:10594000D3FC2121072001F0CFFC142003F0CEF876
:105950006121072001F0C8FC142003F0C7F840F2D1
:105960007311072001F0C0FC142003F0BFF895E488
:10597000FE4880884BF2055188427CD100210846C0
:1059800001F0B2FC0021084601F0AEFC00210846FF
:1059900001F0AAFC0021084601F0A6FC0121A42088
:1059A00001F0A2FC142003F0A1F84FF41C51602078
:1059B00001F09AFC40F20221082001F095FC4FF41E
:1059C0000571302001F090FC43F21571312001F097
:1059D0008BFC40F20461322001F086FC40F6166137
:1059E000332001F081FC42F21121342001F07CFCD3
:1059F0004FF4A851352001F077FC48F207513620CA
:105A000001F072FC41F20741372001F06DFC41F2D8
:105A10000341382001F068FC2021392001F064FCAA
:105A20001A21902001F060FC0021102001F05CFCA4
:105A30000721112001F058FC0021122001F054FC34
:105A40000021132001F050FC142003F04FF84FF414
:105A5000E661102001F048FC40F23711112001F0FE
:105A600043FC142003F042F84FF4DC71122001F0E3
:105A70003BFC142000E085E003F038F84FF470613F
:105A8000132001F031FC80212A2001F02DFC482157
:105A9000292001F029FC142003F028F84FF480712C
:105AA000012001F021FC4FF4E061022001F01CFC18
:105AB00041F23801032001F017FC40F202210820D6
:105AC00001F012FC00210A2001F00EFC00210C2044
:105AD00001F00AFC00210D2001F006FC30210E200F
